:020000040800F2
:1000000000800120554F0008A14F0008A14F0008B3
:10001000A14F0008A14F0008A14F000800000000F8
:10002000000000000000000000000000A14F0008D8
:10003000A14F000800000000A14F0008A14F0008D8
:10004000A14F0008A14F0008A14F0008A14F0008D0
:10005000A14F0008A14F0008A14F0008A14F0008C0
:10006000A14F0008A14F0008A14F0008A14F0008B0
:10007000A14F0008A14F0008A14F0008A14F0008A0
:10008000A14F0008A14F0008A14F00080000000088
:10009000000000000000000000000000A14F000868
:1000A000A14F0008A14F0008A14F0008A14F000870
:1000B000A14F0008A14F0008A14F0008A14F000860
:1000C000A14F0008A14F0008A14F0008A14F000850
:1000D000A14F0008A14F0008A14F00080000000038
:1000E000A14F0008A14F0008A14F00080000000028
:1000F000000000000000000000000000A14F000808
:1001000000000000A14F0008A14F0008A14F000807
:1001100000000000000000000000000000000000DF
:10012000A14F0008A14F0008A14F0008A14F0008EF
:10013000A14F0008000000000000000000000000C7
:10014000000000000000000000000000A14F0008B7
:10015000A14F0008A14F0008A14F0008A14F0008BF
:10016000A14F0008A14F000800000000000000009F
:10017000000000000000000000000000000000007F
:1001800000000000A14F0008000000000000000077
:10019000A14F000810B5054C237833B9044B13B1B7
:1001A0000448AFF300800123237010BD1802002023
:1001B000000000007C7A0008084B10B51BB108480D
:1001C0000849AFF300800848036803B910BD074B26
:1001D000002BFBD0BDE81040184700BF0000000016
:1001E0007C7A00081C02002014020020000000009D
:1001F00000B583B00190019B1B785BB2B3F1FF3F68
:1002000004D10A480A493F2201F094FE019B9B68F1
:100210001A68019B5B681340002B01D0012300E0AA
:100220000023184603B05DF804FB00BFAC6F000864
:10023000C46F000800B583B001900B468DF8033001
:10024000019B00221A70019B00225A60019B002230
:100250009A60019B0022DA60019B00221A61019AD8
:100260009DF903301046194601F008FF019B18461E
:1002700003B05DF804FB00BF00B583B00190019BA3
:100280001846FFF7B5FF0346184603B05DF804FBB8
:1002900000B583B001900198FFF7EEFF03461846C2
:1002A00003B05DF804FB00BF00B583B001900B46BE
:1002B0008DF80330019B00221A70019B00225A60C6
:1002C000019B00229A60019B0022DA60019B0022C0
:1002D0001A61019A9DF903301046194601F0F4FEA7
:1002E000019B184603B05DF804FB00BF00B583B066
:1002F0000190019B064A1A600023002B02D001984E
:1003000004F060FE019B184603B05DF804FB00BFDB
:100310008870000800B583B001900198FFF7E6FFF0
:10032000019804F04FFE019B184603B05DF804FBF2
:1003300008B53D480021002201F0C6F83A483B4983
:1003400004F0EEFD3A483B4904F0EAFD3A484FF428
:10035000E13104F0D5FC394801F0A8FF38483949AB
:1003600004F0DEFD3848FFF793FF0346002B14BF6F
:1003700001230023DBB2002B09D02B4800210122EE
:1003800001F0A2F82848314904F0CAFD4BE030489A
:10039000FFF77EFF0346002B14BF01230023DBB2CF
:1003A000002B0DD020480021012201F08DF81E48BD
:1003B000284904F0B5FD2248274904F0B1FD32E098
:1003C0002648FFF765FF0346002B14BF01230023D7
:1003D000DBB2002B09D014480021012201F074F88F
:1003E00011481F4904F09CFD1DE01E48FFF750FF17
:1003F0000346002B14BF01230023DBB2002B09D0DE
:1004000009480021012201F05FF80748164904F06D
:1004100087FD08E004480021012201F055F8024858
:10042000124904F07DFD9DE780030020287000083C
:100430009002002038700008A80200200000404010
:1004400004030020487000083003002050700008AA
:100450004403002058700008607000085803002012
:10046000687000086C030020707000087870000845
:1004700000B583B00190019B0D4A1A60019B0D4AA3
:10048000DA65019B0C4A1A66019B5C33184604F03E
:10049000AFFC019B1846FFF729FF0023002B02D079
:1004A000019804F08FFD019B184603B05DF804FB32
:1004B00010780008287800085C780008A0F15C003B
:1004C000FFF7D6BFA0F16000FFF7D2BF00B583B041
:1004D00001900198FFF7CCFF019804F073FD019B98
:1004E000184603B05DF804FBA0F15C00EEE700BF26
:1004F000A0F16000EAE700BF00B58BB00990089159
:10050000099B012B4BD1089B4FF6FF72934246D1BA
:10051000244802210322002304F050FB21482249F1
:10052000224A04F059FD22480B210C22002304F03A
:1005300045FB1F481C491D4A04F04EFD1D4805217E
:10054000FFF7B2FE1C481621FFF774FE1B48072177
:10055000FFF770FE1A480621FFF76CFE19480521C7
:10056000FFF768FE142300931A23019308230293D4
:100570004FF4047303934FF0FF3304934FF0FF33B2
:1005800005934FF0807306930F4809212722152306
:1005900001F0F2FA0C480D49044A04F01DFD0BB0BD
:1005A0005DF804FB3402002071040008940100206F
:1005B000A80200201C030020300300204403002078
:1005C000580300206C03002080030020CD1C00088D
:1005D00008B501204FF6FF71FFF78EFF08BD00BF81
:1005E00000B583B001900091019B1B785BB2B3F121
:1005F000FF3F04D10B480C49352201F09BFC009BC6
:10060000002B06D0019BDB68019A526892B21A80D7
:1006100005E0019B1B69019A526892B21A8003B0EF
:100620005DF804FB90700008A870000800B583B066
:1006300001900091019B18460099FFF7D1FF03B08C
:100640005DF804FB00B583B001900091019800991A
:10065000FFF7ECFF019B184603B05DF804FB00BFF9
:1006600000B585B0039002910192039B18460021CA
:1006700004F08CFB039B104A1A60039B0F4A5A60DC
:10068000039B029A9A61039B019ADA62039B9B691E
:10069000DAB2039BDA61039B9B691B12DAB2039BFC
:1006A0001A62039B9B6903F47022039B5A62039BAB
:1006B000184605B05DF804FBB0730008F873000835
:1006C00000B583B001900B468DF80330019B9B6908
:1006D0000E4A934209D1019B012283F830209DF8F4
:1006E00003300198194600F013F8019B002283F8AB
:1006F00030209DF803300198194600F009F8019860
:1007000000F0A2FE03B05DF804FB00BF2804050062
:1007100000B585B001900B468DF80330002303939C
:1007200000230293019B1B6830331B680198002152
:100730009847142001F0CEFD0198032100F03EFF00
:100740000F2001F0C7FD0198032100F037FF0F20B3
:1007500001F0C0FD0198032100F030FF0F2001F0EF
:10076000B9FD0198022100F029FF282001F0C0FD09
:10077000019BDB6AA64A934200F0D483A44A9342C9
:1007800021D8A44A934246D0A24A93420DD8A24A05
:10079000934200F0AB85A14A934200F0AA80A04AA0
:1007A000934200F0718400F0E7BD9E4A934200F04E
:1007B00031839D4A934200F0E8839C4A934200F0C3
:1007C0001D8200F0D9BD9A4A934200F05D82984A9A
:1007D00093420DD8974A934200F0EF83964A934292
:1007E00000F0A084954A934200F0498300F0C4BD14
:1007F000934A934209D8934A934280F08481924A63
:10080000934200F0D28000F0B7BD904A934200F0CE
:10081000CC8000F0B1BD019B9B69B3F58C7F24D0E7
:10082000B3F58C7F10DCB3F5867F1ED0B3F5867FE1
:1008300003DCB3F5847F18D02FE0B3F5887F14D0A4
:10084000B3F58A7F11D028E0814A934217D0804ABD
:10085000934203DC7F4A934211D01EE07E4A9342CA
:1008600017D07E4A934214D017E0019B02221A64EB
:10087000019B04225A64019B00229A6417E0019BA9
:1008800002221A64019B04225A64019B01229A6489
:100890000DE0734801F072FB09E0019B0A221A6423
:1008A000019B0C225A64019B00229A6400BF019BA9
:1008B0005B6C43F020030198194600F0E5FE019BB4
:1008C0009B6C43F008030198194600F0DDFE019887
:1008D000102100F0D9FE0198802100F0D5FE019B87
:1008E0001B6C43F020030198194600F0CDFE00F088
:1008F00094BD019B9B69B3F58C7F12D0B3F58C7FBF
:1009000006DCB3F5847F0CD0B3F5887F09D020E0F6
:10091000514A93420FD0514A934216D0514A9342C2
:1009200017D1019B02221A64019B04225A64019B85
:1009300000229A6417E0019B02221A64019B0422A0
:100940005A64019B01229A640DE0454801F016FBB0
:1009500009E0019B0A221A64019B0C225A64019B44
:1009600000229A6400BF019B5B6C43F02003019856
:10097000194600F089FE019B9B6C43F00803019827
:10098000194600F081FE0198102100F07DFE0198CB
:10099000802100F079FE019B1B6C43F0200301983D
:1009A000194600F071FE00F038BD019B9B692D4A8D
:1009B000934224D02B4A934210DCB3F5887F1ED09B
:1009C000B3F5887F03DCB3F5847F18D050E0B3F52E
:1009D0008C7F14D01F4A934215D049E01E4A93429F
:1009E00011D01D4A934203DC1F4A93420BD03FE0D3
:1009F0001E4A934207D0194A934204D038E0019B23
:100A000000221A6438E0164801F0B8FA34E000BF5A
:100A100009000181150008211100021106000821BA
:100A200001000809070000810A000081140000434A
:100A30000E000BA10B00038110000AA10800038126
:100A4000030003C1020003C1050002C1040003C189
:100A5000140403000C040100180403001003070031
:100A60000C710008080203000C0303000C030400CF
:100A7000019B08221A6400BF019B1B6C43F02103F9
:100A80000198194600F000FE01981C2100F0FCFDC1
:100A9000019B18221A65019B1B6D03F00F0343F0A5
:100AA00070030198194600F0EFFD019BDB6A9B4A39
:100AB000934203D1019B0C22DA6402E0019B0822DD
:100AC000DA64019BDB6C43F05002019B1B6D1B1130
:100AD00003F0030313430198194600F0D5FD0A20E3
:100AE00001F0F8FB01986C2100F0CEFD0A2001F026
:100AF000F1FB019B1B6C43F020030198194600F0A9
:100B0000C3FD00F08ABC019B9B69854A934221D0BA
:100B1000834A934209DCB3F5887F0FD0B3F58C7F0D
:100B20000CD0B3F5847F09D018E07E4A934211D0EF
:100B30007D4A934208D07D4A93420FD1019B002207
:100B40001A64042303930FE0019B08221A6405230F
:100B5000039309E0764801F011FA05E0019B0822B1
:100B60001A640423039300BF019B1B6C43F0210311
:100B70000198194600F088FD039B43F0100301988B
:100B8000194600F081FD019B28221A65019B1B6D0F
:100B900003F00F0343F070030198194600F074FD51
:100BA000019BDB6A634A934203D1019B0C22DA6406
:100BB00002E0019B0822DA64019BDB6C43F05002E7
:100BC000019B1B6D1B1103F003031343019819468E
:100BD00000F05AFD0A2001F07DFB01986C2100F025
:100BE00053FD0A2001F076FB019B1B6C43F02003B0
:100BF0000198194600F048FD00F00FBC019B9B696D
:100C0000474A93421AD0464A934209DCB3F5887F9B
:100C10000FD0B3F58C7F0CD0B3F5847F09D011E0F1
:100C2000404A93420AD0404A934207D03F4A9342F7
:100C300008D19DF80320019B1A640CE03C4801F0A8
:100C40009DF908E09DF8033043F00803DBB21A4633
:100C5000019B1A6400BF019B1B6C43F024030198A5
:100C6000194600F011FD0198042100F00DFD0198D6
:100C7000402100F009FD019B1B6C43F0200301980B
:100C8000194600F001FDC8E3019B9B692A4A934283
:100C90002DD0294A934210DCB3F5887F1ED0B3F5DE
:100CA000887F03DCB3F5847F18D04BE0B3F58C7FED
:100CB00014D01E4A934211D044E0204A93421FD0E0
:100CC0001E4A934203DC1E4A934210D03AE0154A72
:100CD00093421ED0144A93421BD033E0019B002262
:100CE0001A64019B02225A640023029333E0019BA1
:100CF00000221A64019B02225A64002302932AE014
:100D0000019B08221A64019B0A225A640123029360
:100D100021E0074801F032F91DE000BF040003C1E3
:100D20000C0401001804030010030700080203006C
:100D30000C710008020003C10C030300140403003B
:100D400010030300019B08221A64019B0A225A64C3
:100D50000023029300BF019B5B6C43F020030198CA
:100D6000194600F091FC0198062100F08DFC052049
:100D700001F0B0FA029B43F008030198194600F015
:100D800083FC0198102100F07FFC019B1B6C43F059
:100D900021030198194600F077FC019B28221A656F
:100DA000019B1B6D03F00F0343F07003019819467C
:100DB00000F06AFC019B0C22DA64019BDB6C43F0BF
:100DC0005002019B1B6D1B1103F003031343019899
:100DD000194600F059FC0A2001F07CFA01986E21B6
:100DE00000F052FC0A2001F075FA019B5B6C43F0A5
:100DF00020030198194600F047FC0198102100F0EB
:100E000043FC019B1B6C43F020030198194600F042
:100E10003BFC02E3019B9B69B3F58C7F03D0B3F5E8
:100E2000037F04D007E0019B00221A6407E0019BC6
:100E300004221A6403E0B14801F0A0F800BF019B4E
:100E40001B6C43F021030198194600F01DFC0A2099
:100E500001F040FA0198052100F016FC01980221EA
:100E600000F012FC0198082100F00EFC019B1B6CA5
:100E700043F020030198194600F006FCCDE2019BE7
:100E80009B69B3F58C7F03D0B3F5037F04D007E0F3
:100E9000019B00221A6407E0019B04221A6403E00C
:100EA000964801F06BF800BF019B1B6C43F02103D7
:100EB0000198194600F0E8FB0198042100F0E4FBDA
:100EC0000198102100F0E0FB0198422100F0DCFBCA
:100ED000019B20221A65019B1B6D03F03F0343F029
:100EE00080030198194600F0CFFB019B1B6DDBB21C
:100EF00043F0C0030198194600F0C6FB0A2001F038
:100F0000E9F90198022100F0BFFB0198082100F0E7
:100F1000BBFB019B1B6C43F020030198194600F0BA
:100F2000B3FB7AE2019B9B69754A934218D0744ADD
:100F3000934206DCB3F58C7F0AD0B3F5067F17D059
:100F40001EE0704A93420BD06F4A934208D017E0DC
:100F50000198222100F098FB0A2001F0BBF913E070
:100F600001982E2100F090FB0A2001F0B3F90BE06C
:100F700001982A2100F088FB0A2001F0ABF903E078
:100F80005E4800F0FBFF00BF47E2019B9B695D4AA2
:100F9000934205D05C4A934202D0594A934207D10A
:100FA00001982C2100F070FB0A2001F093F903E076
:100FB000524800F0E3FF00BF2FE20A2001F08AF957
:100FC000019B9B69B3F58C7F14D0B3F58C7F06DC55
:100FD000B3F5847F0AD0B3F5887F07D012E0B3F56C
:100FE000027F0BD0B3F5047F08D00BE0019B0222F7
:100FF0001A640BE0019B00221A6407E0019B0422A3
:101000001A6403E03D4800F0B9FF00BF019B1B6C70
:1010100043F021030198194600F036FB01980421A2
:1010200000F032FB0198102100F02EFB01984221C4
:1010300000F02AFB019B20221A65019B1B6D03F027
:101040003F0343F080030198194600F01DFB019B0C
:101050001B6DDBB243F0C0030198194600F014FB8E
:101060000A2001F037F90198022100F00DFB0198E8
:10107000082100F009FB019B1B6C43F02003019841
:10108000194600F001FBC8E10198172100F0FCFAB5
:101090000A2001F01FF9019B9B691C4A934224D04E
:1010A0001A4A934210DCB3F5887F1ED0B3F5887FCF
:1010B00003DCB3F5847F18D02EE0B3F58C7F14D019
:1010C0000F4A934216D027E0114A934212D0104A99
:1010D000934203DC0B4A93420CD01DE00A4A934230
:1010E00008D00C4A934205D016E00198202100F068
:1010F000CBFA16E0014800F041FF12E00C71000845
:101100000C0401000C0303000C030400080203009C
:1011100018040300100307000198282100F0B4FA16
:1011200000BF7AE1019B9B69B3F5057F30D0B3F531
:10113000057F10DCB3F5887F21D0B3F5887F03DC11
:10114000B3F5847F1BD03EE0B3F5027F20D0B3F52A
:10115000047F1DD037E0A14A934222D09F4A934298
:1011600006DC9F4A934213D09E4A934207D02AE05E
:101170009D4A934215D09D4A93421BD023E0019B88
:1011800000221A64019B02225A64002302931EE08B
:10119000019B08221A64019B0A225A6400230293CD
:1011A00015E0019B00221A64019B02225A6400236D
:1011B00002930CE0019B08221A64019B0A225A64E4
:1011C0000123029303E08A4800F0D8FE00BF019893
:1011D000002100F059FA019B5B6C43F02003019859
:1011E000194600F051FA0198712100F04DFA01986A
:1011F000002100F065FA0198792100F045FA019884
:10120000D52100F041FA0198702100F03DFA0198D3
:10121000782100F039FA0198052100F035FA029B97
:1012200043F008030198194600F02EFA0198722144
:1012300000F02AFA0198012100F042FA0198792180
:1012400000F022FA0198DA2100F01EFA019810212C
:1012500000F01AFA0198DC2100F016FA01988021BA
:1012600000F012FA019B3F221A650198812100F0DB
:101270000BFA019B1B6D9B0043F003030198194679
:1012800000F002FA0198D92100F0FEF90198F1214D
:1012900000F0FAF90198DB2100F0F6F9019830210D
:1012A00000F0F2F90A2001F015F80198782100F019
:1012B000EBF9019B1B6C43F021030198194600F0E8
:1012C000E3F9019B5B6C43F020030198194600F0A1
:1012D000DBF90198102100F0D7F9019B1B6C43F05A
:1012E00020030198194600F0CFF996E0019B9B6915
:1012F000B3F5027F27D0B3F5027F10DCB3F5887F0A
:101300001DD0B3F5887F03DCB3F5847F17D01EE0D2
:10131000B3F58A7F13D0B3F58C7F10D017E0B3F507
:10132000057F10D0B3F5057F03DCB3F5047F0AD049
:101330000DE0B3F5067F06D02A4A934207D1019B00
:1013400000221A6407E0019B08221A6403E028487F
:1013500000F014FE00BF019B3F221A65019B1B6C2D
:1013600043F02002019B1B6DDB431B1113430198CB
:10137000194600F089F950E0019B9B69194A934294
:1013800024D0184A934210DCB3F5887F1ED0B3F501
:10139000887F03DCB3F5847F18D031E0B3F58C7F10
:1013A00014D0144A934215D02AE00F4A934211D028
:1013B0000D4A934203DC094A93420BD020E00E4AC7
:1013C000934207D00D4A934204D019E0019B0022BA
:1013D0001A6419E0064800F0D1FD15E00C03030083
:1013E00010010200080203001003030014040300AC
:1013F0000C7100080C040100180403000C03040025
:10140000019B08221A6400BF019B1B6C43F0200360
:101410000198194600F038F900BF0198022100F048
:1014200033F90198062100F02FF90198142100F0FA
:101430002BF90198002100F0C3FA0198042100F073
:10144000D9FA05B05DF804FB00B583B00190019BAB
:101450009B691C4A934216D1019B012283F83020DC
:10146000019B93F8283001981946002200F020FBD8
:101470000198012100F008F90A2000F02BFF019BE0
:10148000002283F830200198012100F0FDF80A20A5
:1014900000F020FF019B9B690A4A93420AD1019BFD
:1014A00093F82820019B93F83C30019811461A4686
:1014B00000F0FEFA01980021002200F02DFA03B09E
:1014C0005DF804FB2804050000B585B00390029187
:1014D000019203980299019A00F01EFA05B05DF896
:1014E00004FB00BF10B584B001900091009B0A2B53
:1014F00018D1019B00225A63019B9B6B5A1C019BD4
:101500009A63019B9C6B019800F052FA03469C423F
:10151000ACBF01230023DBB2002B31D0019B0022A2
:101520009A632DE00198009900F0CAF8019B5B6B6B
:101530005A1C019B5A63019B5C6B019800F030FAC6
:1015400003469C42ACBF01230023DBB2002B17D023
:10155000019B00225A63019B9B6B5A1C019B9A635F
:10156000019B9C6B019800F023FA03469C42ACBFA0
:1015700001230023DBB2002B02D0019B00229A63DF
:10158000019B5A6B019B9B6B019811461A4600F018
:10159000B3F80390039B43F080030198194600F0D1
:1015A00073F8009B184604B010BD00BF82B00190D4
:1015B0004FF0FF33184602B0704700BF00B583B04C
:1015C00001900091019B1B682C331B68019801213D
:1015D0009847019B1B6838331B68009A02F00F0282
:1015E000019811469847012000F082FE019B1B687C
:1015F0002C331B68019800219847012000F078FEE9
:1016000003B05DF804FB00BF00B583B0019000910A
:10161000019B1B682C331B68019801219847019B93
:101620001B6838331B68009A1211019811469847BD
:10163000012000F05DFE019B1B682C331B680198A4
:1016400000219847012000F053FE019B1B682C33BA
:101650001B68019801219847019B1B6838331B6860
:10166000019800999847012000F042FE019B1B68F9
:101670002C331B68019800219847012000F038FEA8
:1016800003B05DF804FB00BF00B583B0019000918A
:10169000019B1B6830331B6801980021984701208B
:1016A00000F026FE019B1B683C331B6801980099E3
:1016B0009847282000F01CFE03B05DF804FB00BF33
:1016C00000B583B001900091019B1B6830331B680B
:1016D000019801219847012000F00AFE019B1B6838
:1016E0003C331B68019800999847282000F000FEC1
:1016F00003B05DF804FB00BF00B585B00390029114
:101700000192039B5B6AB3F5403F57D0B3F5403F6E
:1017100008DCB3F5803F3AD0B3F5003F3FD0002B53
:1017200013D0F3E0B3F5A02F75D0B3F5A02F03DCF1
:10173000B3F5802F5DD0E9E0B3F5C02F00F0B180A4
:10174000B3F5E02F00F0D180E0E0019B032B1CD823
:1017500001A252F823F000BF691700086D170008B6
:10176000731700087D170008029BD0E0029B4033EE
:10177000CDE0039BDA69029B1344C8E0039BDB695D
:1017800003F14002029B1344C1E00023BFE0019B30
:10179000002B01D1029BBAE0029B0833B7E0039B08
:1017A000DB695A10029B9A4201DD029BAFE0039B6A
:1017B000DB695B10029AD31A4033A8E0019B032B2C
:1017C00015D801A252F823F0D9170008DD17000838
:1017D000E3170008E9170008029B98E0029B2033FA
:1017E00095E0029B403392E0029B60338FE0002340
:1017F0008DE0019B012B06D0022B07D0002B08D1D6
:10180000029B203383E0029B403380E0029B6033E5
:101810007DE000237BE0019B012B20DC039B93F800
:101820003030002B16D0039B93F8283003981946CC
:10183000002200F03DF9039B002283F83020039B37
:1018400093F82820039B93F83C30039811461A46DE
:1018500000F02EF9019B9A01029B134457E0039B71
:1018600093F83030012B16D0039B93F8283003985F
:101870001946002200F01CF9039B012283F8302056
:10188000039B93F82820039B93F83C300398114660
:101890001A4600F00DF9019B023B9A01029B13448A
:1018A00035E0019B012B05D0022B06D0002B1AD16D
:1018B000029B2CE0029B403329E0039BDB695A101A
:1018C000029B9A4204DD039BDA69029B13441EE0EB
:1018D000039BDB6903F14002039BDB695B10029908
:1018E000CB1A134413E0002311E0019B012B05D018
:1018F000022B06D0002B07D1029B08E0029B10337D
:1019000005E0029B203302E0002300E0002318469C
:1019100005B05DF804FB00BF00B587B003900291ED
:101920000192029B002B03DA039B00225A630DE015
:10193000039BDA69029B9A4205DC039BDB695A1E12
:10194000039B5A6302E0039B029A5A63019B002B9C
:1019500003DA039B00229A630DE0039B1A6A019B42
:101960009A4205DC039B1B6A5A1E039B9A6302E0A2
:10197000039B019A9A63039B5A6B039B9B6B03988F
:1019800011461A46FFF7B8FE0590059B43F0800309
:1019900003981946FFF778FE07B05DF804FB00BF17
:1019A00082B00190019BDB69184602B0704700BF0E
:1019B00082B00190019B1B6A184602B0704700BFBD
:1019C00000B583B001900B468DF80330019B9DF864
:1019D000032083F83C20019B93F82820019B93F877
:1019E0003C30019811461A4600F062F803B05DF8E9
:1019F00004FB00BF00B583B001900B468DF80330A7
:101A0000019B9DF8032083F82820019B9B69274AAE
:101A100093423CD1019B93F83030002B1BD1019BAA
:101A200093F82820019B93F83C30019811461A4600
:101A300000F03EF8019B012283F83020019B93F8CF
:101A4000283001981946002200F032F8019B00224C
:101A500083F8302026E0019B002283F83020019B90
:101A600093F8283001981946002200F021F8019BD4
:101A7000012283F83020019B93F82820019B93F8E2
:101A80003C30019811461A4600F012F80AE0019B1A
:101A900093F82820019B93F83C30019811461A4690
:101AA00000F006F803B05DF804FB00BF2804050051
:101AB00000B583B001900B468DF8033013468DF8C6
:101AC0000230019BDB6A124A93420FD19DF803302A
:101AD00043F00803DBB21A469DF8023003F002031C
:101AE000134301981946FFF7CFFD0DE09DF8032041
:101AF0009DF802301343DBB243F00803DBB20198D8
:101B00001946FFF7C1FD00BF03B05DF804FB00BF3D
:101B10001400004300B583B00190019B094A1A608C
:101B2000019B094A5A60019B184603F061F90023A2
:101B3000002B02D0019803F045FA019B184603B030
:101B40005DF804FBB0730008F8730008A0F104000E
:101B5000FFF7E0BF00B583B001900198FFF7DAFF0F
:101B6000019803F02FFA019B184603B05DF804FBBF
:101B7000A0F10400EEE700BF10B590B00F9008464A
:101B800011461A4603468DF83B300B468DF83A3025
:101B900013468DF839300F9B18461599189AFEF7A1
:101BA0005FFD0F9B474A1A600F9B474A5A600F9B85
:101BB00003F154029DF93B3010461946FEF774FBC1
:101BC0000F9B03F168029DF93A3010461946FEF763
:101BD0006BFB0F9B03F17C009DF939109DF94820A8
:101BE0009DF94C409DF9503000934FF0FF33019325
:101BF0004FF0FF3302934FF0FF3303934FF0FF3367
:101C000004934FF0FF3305934FF0FF3306934FF0EB
:101C1000FF3307934FF0FF3308934FF0FF330993DF
:101C20004FF0FF330A934FF0FF330B934FF0FF3326
:101C30000C93234602F06EFA9DF95830B3F1FF3F42
:101C400014D0142003F0ADF904469DF95830204615
:101C50001946FEF729FB0F9BC3F8C4400F9BD3F82E
:101C6000C43018460021FEF7E1FC03E00F9B002280
:101C7000C3F8C4209DF95C30B3F1FF3F14D01420A9
:101C800003F08FF904469DF95C3020461946FEF7B3
:101C90000BFB0F9BC3F8C8400F9BD3F8C830184606
:101CA0000021FEF7C3FC03E00F9B0022C3F8C8200D
:101CB0000F9B18460021FEF703FD0F9B184610B03E
:101CC00010BD00BF58730008A073000800B583B0B2
:101CD0000190019B174A1A60019B174A5A60019BA9
:101CE000D3F8C430002B05D0019BD3F8C43018467C
:101CF00003F068F9019BD3F8C830002B05D0019B95
:101D0000D3F8C830184603F05DF9019B7C331846C0
:101D100002F092FA019B1846FFF7FCFE0023002B0D
:101D200002D0019803F04EF9019B184603B05DF80C
:101D300004FB00BF58730008A0730008A0F1040062
:101D4000FFF7C4BF00B583B001900198FFF7BEFF55
:101D5000019803F037F9019B184603B05DF804FBC6
:101D6000A0F10400FFF7EEBF00B583B001900B4671
:101D70008DF80330019B93F83030002B11D19DF882
:101D80000330002B06D0019B683318460121FEF773
:101D900059FC23E0019B683318460021FEF752FCF2
:101DA0001CE09DF80330002B0CD0019BD3F8C83009
:101DB000002B13D0019BD3F8C83018460121FEF741
:101DC00035FC0BE0019BD3F8C830002B06D0019BFB
:101DD000D3F8C83018460021FEF728FC03B05DF8A0
:101DE00004FB00BF00B583B001900B468DF80330B3
:101DF0009DF80330002B06D0019B54331846012177
:101E0000FEF720FC05E0019B543318460021FEF745
:101E100019FC03B05DF804FB00B583B001900B46DC
:101E20008DF803309DF80330002B0CD0019BD3F8C4
:101E3000C430002B13D0019BD3F8C43018460121C5
:101E4000FEF7F4FB0BE0019BD3F8C430002B06D067
:101E5000019BD3F8C43018460021FEF7E7FB03B01E
:101E60005DF804FB00B583B001900091019B03F184
:101E70007C02009B03F00F031046194602F03CFA67
:101E800003B05DF804FB00BF00B583B0094A0A4BFC
:101E9000D31A0193019B084800211A4603F051FC14
:101EA000AFF3008003F094FB02F030FE0090009846
:101EB00003F0ACF8640600201802002000B583B0DF
:101EC0000190019B022B01DC012303E0019802F049
:101ED000B5FD0346184603B05DF804FB82B0EFF38E
:101EE00005830193019B002B00D000BE02B0704718
:101EF00000B583B00190FFF7F1FF019803F0DCFB20
:101F00000346184603B05DF804FB00BF00B583B07C
:101F10000190FFF7E3FF019803F0D6FB03B05DF8F3
:101F200004FB00BF08B5012003F070F808B5FFF707
:101F3000F9FF00BF00B587B0059004910392084BEC
:101F40001B68DA68039B009310460649059A049BB8
:101F500003F080FA00F008F807B05DF804FB00BF5A
:101F6000000200200074000808B572B6962000F048
:101F7000B1F9962000F0AEF9F8E700BF0FB400B554
:101F800083B005AB0193054B1B68DB6818460499C9
:101F9000019A03F0A9FD012003F038F800020020A7
:101FA00000B583B001900091019B1B785BB2B3F147
:101FB000FF3F04D10B480C493522FFF7BBFF009BC4
:101FC000002B06D0019BDB68019A526892B21A80FE
:101FD00005E0019B1B69019A526892B21A8003B016
:101FE0005DF804FB347400084C74000800B583B03D
:101FF00001900B468DF8033013468DF802309DF9A1
:1020000003300198194601F055FD9DF90330B3F1F5
:10201000FF3F09D00198002101F094FD9DF80230A6
:102020000198194601F07CFD03B05DF804FB00BF88
:1020300000B585B0039001930B468DF80B30134625
:102040008DF80A309DF90B300398194601F032FDE6
:102050009DF90B30B3F1FF3F0DD003980199FFF7C5
:102060009FFF0398012101F06DFD9DF80A30039850
:10207000194601F055FD05B05DF804FB00B583B0CD
:1020800001900B468DF803309DF9033001981946F5
:10209000002200F003F803B05DF804FB00B583B044
:1020A00001900B468DF8033013468DF802309DF9F0
:1020B00003209DF80230019811461A46FFF796FF5B
:1020C00003B05DF804FB00BF00B583B001900B4680
:1020D0008DF803309DF9033001981946002200F075
:1020E00003F803B05DF804FB00B585B003900B4620
:1020F00001928DF80B309DF90B30039819460022A0
:10210000019BFFF795FF05B05DF804FB00B583B0B8
:10211000034600918DF807309DF90730B3F1FF3F7A
:1021200000D122E018E0009B1B789DF907205BB2EC
:102130009A420ED1009B9B689DF9072010461946D4
:1021400001F09EFD9DF907301846002101F0E6FDE3
:102150000BE0009B0C330093009B1B785BB2B3F148
:10216000FF3FE0D10248FFF709FF03B05DF804FB31
:10217000A474000800B583B001900091019A009BFF
:102180009A4201D1019B10E0019BB3F1FF3F01D1C5
:10219000009B0AE0009BB3F1FF3F01D1019B04E0EB
:1021A0000448FFF7EBFE4FF0FF33184603B05DF82D
:1021B00004FB00BFB874000882B0034600918DF89C
:1021C00007300CE0009B1B789DF907205BB29A4218
:1021D00002D1009B5B680AE0009B0C330093009BDC
:1021E0001B785BB2B3F1FF3FECD14FF0FF331846E1
:1021F00002B0704700B585B0034600918DF80730F6
:102200004FF0FF3303939DF90730B3F1FF3F02D145
:102210004FF0FF330EE09DF9073018460099FFF7A5
:10222000CBFF0390039BB3F1FF3F02D10348FFF7BD
:10223000A5FE039B184605B05DF804FBCC740008AE
:1022400010B582B001F05EFF164B1B68002B02D167
:1022500001F04CFF24E0134B1B681C6801F024FFC5
:102260000346E31A002B13DC0E4B1B6801930D4B46
:102270001B689B680B4A13600B4B1B68002B06D036
:10228000094B1B68019A52681046984707E006E020
:10229000044B1B681B68184601F016FF00E0D3E7EB
:1022A00002B010BD500400204C04002000B583B0E3
:1022B0000190DDED017A9FED067A67EE877AFDEEFB
:1022C000E77A17EE900A00F013F803B05DF804FB0C
:1022D0000024744900B583B00190019B4FF47A72D9
:1022E00002FB03F3184600F003F803B05DF804FBAB
:1022F00000B585B0019001F0D7FE039000BF01F05A
:10230000D3FE0246039BD21A019B9A42F7D305B033
:102310005DF804FB08B50E4A0D4B1B6843F40073CF
:1023200013600B4A0A4B1B6843F480631360084A2E
:10233000074B1B6843F480731360032000F038F8E8
:102340000F2001F0B5F900F005F80023184608BD8C
:10235000003C0240704700BF024B1B680133014A3A
:102360001360704754040020014B1B6818467047E7
:102370005404002084B00190019B03F007030393F1
:102380000A4BDB680293029A4FF6FF031340029355
:10239000039B1A02029B134343F0BF6343F40033D1
:1023A0000293024A029BD36004B0704700ED00E044
:1023B00000B583B001900198FFF7DCFF03B05DF832
:1023C00004FB00BF86B0019000910023039300231B
:1023D000029300230493002305936BE1059B0122E4
:1023E00002FA03F30393009B1A68039B13400293C2
:1023F000029A039B9A4240F05A81009B5B68022B31
:1024000003D0009B5B68122B22D1059BDA08019B4D
:10241000083253F822300493059B03F007039B0016
:102420001A460F239340DB43049A13400493009B06
:102430001B69059A02F0070292009340049A134325
:102440000493059BDA08019B0832049943F8221093
:10245000019B1B680493059B5B001A460323934072
:10246000DB43049A13400493009B5B6803F003036F
:10247000059A52009340049A13430493019B049AD3
:102480001A60009B5B68012B0BD0009B5B68022BE2
:1024900007D0009B5B68112B03D0009B5B68122B5D
:1024A0002FD1019B9B680493059B5B001A46032375
:1024B0009340DB43049A13400493009BDB68059A26
:1024C00052009340049A13430493019B049A9A6028
:1024D000019B5B680493059B012202FA03F3DB4333
:1024E000049A13400493009B5B6803F010031A09DD
:1024F000059B02FA03F3049A13430493019B049A85
:102500005A60019BDB680493059B5B001A4603231A
:102510009340DB43049A13400493009B9B68059A05
:1025200052009340049A13430493019B049ADA6087
:10253000009B5B6803F08053002B00F0B880604A7A
:102540005F4B5B6C43F4804353645E4A059B9B087E
:10255000023352F823300493059B03F003039B00DE
:102560001A460F239340DB43049A13400493019BC4
:10257000554A934237D0019B544A934231D0019B34
:10258000534A93422BD0019B524A934225D0019B40
:10259000514A93421FD0019B504A934219D0019B4C
:1025A0004F4A934213D0019B4E4A93420DD0019B58
:1025B0004D4A934207D0019B4C4A934201D10923D3
:1025C00012E00A2310E008230EE007230CE00623A4
:1025D0000AE0052308E0042306E0032304E00223C5
:1025E00002E0012300E00023059A02F003029200BA
:1025F0009340049A134304933249059B9B0802338A
:10260000049A41F823203A4B1B680493029BDB4356
:10261000049A13400493009B5B6803F48033002BFF
:1026200003D0049A029B13430493314A049B136022
:102630002F4B5B680493029BDB43049A1340049383
:10264000009B5B6803F40033002B03D0049A029BC9
:1026500013430493264A049B5360254B9B680493C1
:10266000029BDB43049A13400493009B5B6803F4D2
:102670008013002B03D0049A029B134304931C4A3B
:10268000049B93601A4BDB680493029BDB43049A20
:1026900013400493009B5B6803F40013002B03D0EA
:1026A000049A029B13430493114A049BD360059B35
:1026B00001330593059B0F2B7FF690AE06B0704754
:1026C000003802400038014000000240000402408F
:1026D00000080240000C02400010024000140240BA
:1026E00000180240001C024000200240002402406A
:1026F000003C014000B599B0019000231793019B65
:102700001B6803F00103002B67D0A24B9B6803F00A
:102710000C03042B0BD09F4B9B6803F00C03082B7E
:1027200012D19C4B5B6803F48003002B0CD0994BB7
:102730001B6803F40033002B05D0019B5B68012B61
:1027400001D001231AE248E0934B00221A70FFF7F0
:102750000BFE179009E0FFF707FE0246179BD31AFE
:10276000B3F5FA7F01D9032308E28A4B1B6803F40F
:102770000033002BEFD1884A019B5B68DBB21370FA
:10278000019B5B68012B14D1FFF7EEFD179009E068
:10279000FFF7EAFD0246179BD31AB3F5FA7F01D97A
:1027A0000323EBE17B4B1B6803F40033002BEFD0DA
:1027B00013E0FFF7D9FD179009E0FFF7D5FD0246BA
:1027C000179BD31AB3F5FA7F01D90323D6E1714BD6
:1027D0001B6803F40033002BEFD1019B1B6803F04F
:1027E0000203002B7FD06B4B9B6803F00C03002B84
:1027F0000BD0684B9B6803F00C03082B2AD1654B68
:102800005B6803F48003002B24D1624B1B6803F048
:102810000203002B05D0019BDB68012B01D00123B3
:10282000ACE15C485B4B1B6823F0F802019B1B6921
:10283000F8211691169991FAA1F115911599149113
:102840001499B1FA81F113911399C9B28B401343D2
:10285000036048E0019BDB68002B2ED04F4B012228
:102860001A60FFF781FD179008E0FFF77DFD024633
:10287000179BD31A642B01D903237FE1454B1B68B7
:1028800003F00203002BF0D04248424B1B6823F0B8
:10289000F802019B1B69F8211291129991FAA1F19A
:1028A0001191119910911099B1FA81F10F910F992D
:1028B000C9B28B401343036015E0384B00221A6005
:1028C000FFF752FD179008E0FFF74EFD0246179BF9
:1028D000D31A642B01D9032350E12E4B1B6803F05C
:1028E0000203002BF0D1019B1B6803F00803002BAF
:1028F00030D0019B5B69002B16D0294B01221A6056
:10290000FFF732FD179008E0FFF72EFD0246179BF8
:10291000D31A642B01D9032330E11E4B5B6F03F004
:102920000203002BF0D015E01D4B00221A60FFF7C8
:102930001BFD179008E0FFF717FD0246179BD31AFF
:10294000642B01D9032319E1124B5B6F03F00203DF
:10295000002BF0D1019B1B6803F00403002B72D005
:102960000C4A0C4B1B6C43F0805313640D4A0D4B07
:102970001B6843F480731360FFF7F6FC179013E0B5
:10298000FFF7F2FC0246179BD31A642B0CD90323E2
:10299000F4E000BF00380240023802400000474225
:1029A000800E474200700040764B1B6803F4807332
:1029B000002BE5D0744B00221A70FFF7D5FC17905E
:1029C00009E0FFF7D1FC0246179BD31AB3F5167F37
:1029D00001D90323D2E06D4B1B6F03F00203002BE0
:1029E000EFD1694A019B9B68DBB21370019B9B6826
:1029F000012B14D1FFF7B8FC179009E0FFF7B4FCE6
:102A00000246179BD31AB3F5167F01D90323B5E00D
:102A10005E4B1B6F03F00203002BEFD013E0FFF7B8
:102A2000A3FC179009E0FFF79FFC0246179BD31AFF
:102A3000B3F5167F01D90323A0E0544B1B6F03F0BD
:102A40000203002BEFD1019B9B69002B00F09580C6
:102A50004E4B9B6803F00C03082B00F08C80019B0D
:102A60009B69022B70D14A4B00221A60FFF77CFC55
:102A7000179008E0FFF778FC0246179BD31A642BE7
:102A800001D903237AE0414B1B6803F00073002B4C
:102A9000F0D13E48019B1A6A019B5B6A47F6C07100
:102AA0000E910E9991FAA1F10D910D990C910C993D
:102AB000B1FA81F10B910B99C9B28B401A43019B7A
:102AC0009B6A5B08013B4FF440310A910A9991FAE5
:102AD000A1F10991099908910899B1FA81F1079139
:102AE0000799C9B28B401A43019BDB691A43019BCA
:102AF000DB6A4FF070610691069991FAA1F1059198
:102B0000059904910499B1FA81F103910399C9B22D
:102B10008B40134343F0005343601D4B01221A6066
:102B2000FFF722FC179008E0FFF71EFC0246179BF8
:102B3000D31A642B01D9032320E0144B1B6803F044
:102B40000073002BF0D018E0114B00221A60FFF741
:102B50000BFC179008E0FFF707FC0246179BD31AFF
:102B6000642B01D9032309E0084B1B6803F00073B1
:102B7000002BF0D101E0012300E00023184619B03A
:102B80005DF804FB007000407038024000380240DD
:102B90006000474200B585B0019000910023039387
:102BA000A64B1B6803F00F02009B9A4280F09080B6
:102BB000A24B009AD2B21A70A04B1B6803F00F020E
:102BC000009B9A4201D0012333E1019B1B6803F073
:102BD0000203002B08D09A49994B9B6823F0F0021E
:102BE000019B9B6813438B60019B1B6803F00103EF
:102BF000002B00F0FB80019B5B68012B07D1904B01
:102C00001B6803F40033002B15D1012311E1019B54
:102C10005B68022B07D18A4B1B6803F00073002B03
:102C200009D1012305E1864B1B6803F00203002B49
:102C300001D10123FDE08249814B9B6823F003020F
:102C4000019B5B6813438B60FFF78EFB0390019B36
:102C50005B68012B12D10AE0FFF786FB0246039B5B
:102C6000D31A41F28832934201D90323E1E0744B35
:102C70009B6803F00C03042BEED1B7E0019B5B686B
:102C8000022B12D10AE0FFF76FFB0246039BD31A17
:102C900041F28832934201D90323CAE0684B9B6812
:102CA00003F00C03082BEED1A0E00AE0FFF75CFB79
:102CB0000246039BD31A41F28832934201D903237F
:102CC000B7E05F4B9B6803F00C03002BEED18DE067
:102CD000019B1B6803F00203002B08D05849584B96
:102CE0009B6823F0F002019B9B6813438B60019B60
:102CF0001B6803F00103002B6BD0019B5B68012B69
:102D000007D14F4B1B6803F40033002B15D101236F
:102D10008FE0019B5B68022B07D1494B1B6803F0D6
:102D20000073002B09D1012383E0454B1B6803F09E
:102D30000203002B01D101237BE04149404B9B68FA
:102D400023F00302019B5B6813438B60FFF70CFBCE
:102D50000390019B5B68012B12D10AE0FFF704FB93
:102D60000246039BD31A41F28832934201D90323CE
:102D70005FE0334B9B6803F00C03042BEED128E09B
:102D8000019B5B68022B12D10AE0FFF7EDFA0246C5
:102D9000039BD31A41F28832934201D9032348E0BE
:102DA000274B9B6803F00C03082BEED111E00AE0DF
:102DB000FFF7DAFA0246039BD31A41F288329342B4
:102DC00001D9032335E01E4B9B6803F00C03002B55
:102DD000EED11A4B009AD2B21A70184B1B6803F04E
:102DE0000F02009B9A4201D0012322E0019B1B6845
:102DF00003F00403002B08D01149114B9B6823F406
:102E0000E052019BDB6813438B60019B1B6803F05E
:102E10000803002B09D00A49094B9B6823F4604240
:102E2000019B1B69DB0013438B600F2000F040FC0B
:102E30000023184605B05DF804FB00BF003C0240CB
:102E40000038024094B00023119300231393002311
:102E5000109300231293444B9B6803F00C03042B44
:102E600006D0082B07D0002B76D1404B129376E08A
:102E70003F4B129373E03C4B5B6803F03F031193AD
:102E8000394B5B6803F480034FF480020F920F9A72
:102E900092FAA2F20E920E9A0D920D9AB2FA82F264
:102EA0000C920C9AD2B2D340002B1CD0304A119B0A
:102EB000B2FBF3F22C4B596847F6C0730B4047F650
:102EC000C0710B910B9991FAA1F10A910A9909919C
:102ED0000999B1FA81F108910899C9B2CB4003FB75
:102EE00002F313931BE0214A119BB2FBF3F21E4B3A
:102EF000596847F6C0730B4047F6C07107910799B0
:102F000091FAA1F10691069905910599B1FA81F11D
:102F100004910499C9B2CB4003FB02F31393124B03
:102F20005B6803F440334FF440320392039A92FA01
:102F3000A2F20292029A0192019AB2FA82F20092ED
:102F4000009AD2B2D34001335B001093139A109BC6
:102F5000B2FBF3F3129302E0044B129300BF129BF7
:102F6000184614B0704700BF003802400024F40037
:102F700000127A0000B585B0FFF764FF01460F4BE1
:102F80009B6803F0F003F0220392039A92FAA2F2F4
:102F90000292029A0192019AB2FA82F20092009A87
:102FA000D2B2D340064AD35C21FA03F3054A136038
:102FB000044B1B68184605B05DF804FB003802405E
:102FC000EC7400089801002000B585B0FFF7D2FF2F
:102FD00001460E4B9B6803F4E0534FF4E05203921A
:102FE000039A92FAA2F20292029A0192019AB2FA1A
:102FF00082F20092009AD2B2D340054AD35C21FA01
:1030000003F3184605B05DF804FB00BF003802402A
:10301000EC74000800B585B0FFF7ACFF01460E4B1D
:103020009B6803F460434FF460420392039A92FA60
:10303000A2F20292029A0192019AB2FA82F20092EC
:10304000009AD2B2D340054AD35C21FA03F3184662
:1030500005B05DF804FB00BF00380240EC740008C6
:1030600000B583B00190019B002B01D1012319E031
:10307000019B93F83930DBB2002B02D1019800F0AC
:1030800015F8019B022283F83920019B1A68019BE5
:1030900004331046194600F035F8019B012283F8ED
:1030A00039200023184603B05DF804FB82B001907C
:1030B00002B0704700B583B001900091019B1B687E
:1030C00018460099012200F09BF8019B1B680C4AEE
:1030D000934207D1019B1B68019A1268526C42F41B
:1030E00000425A64019B1B68019A1268126842F000
:1030F00001021A600023184603B05DF804FB00BF0C
:103100000000014084B00190009100230393019BD3
:103110001B680393019B334A93420FD0019BB3F189
:10312000804F0BD0019B304A934207D0019B2F4A1E
:10313000934203D0019B2E4A934201D1012300E028
:103140000023002B08D0039B23F070030393009B04
:103150005B68039A13430393019B224A93421BD05B
:10316000019BB3F1804F17D0019B1F4A934213D0AC
:10317000019B1E4A93420FD0019B1D4A93420BD0E4
:10318000019B1C4A934207D0019B1B4A934203D0E8
:10319000019B1A4A934201D1012300E00023002B36
:1031A00008D0039B23F440730393009BDB68039ACE
:1031B00013430393019B039A1A60009B9A68019B37
:1031C000DA62009B1A68019B9A62019B054A93424E
:1031D00003D1009B1A69019B1A63019B01225A616A
:1031E00004B07047000001400004004000080040A7
:1031F000000C0040004001400044014000480140F4
:1032000086B003900291019200230593029B012254
:1032100002FA03F30593039B1A6A059BDB431A40EA
:10322000039B1A62039B1A6A029B019901FA03F33A
:103230001A43039B1A6206B0704700BF00B583B003
:103240000190019B002B01D1012338E0019B93F8F1
:103250003930DBB2002B02D1019800F035F8019B28
:10326000022283F83920019B1B68019A1268D268F8
:1032700022F40052DA60019800F02AF8019B1B68E2
:10328000019A1268126922F490421A61019B1B682C
:10329000019A1268526922F02A025A61019B1B6846
:1032A000019A1268D26842F40052DA60019B00224F
:1032B00083F83A20019B012283F839200023184625
:1032C00003B05DF804FB00BF82B0019002B070470C
:1032D00070B584B0019000230393019B1B681B69A8
:1032E0000393039B23F440530393019BDB68039AEE
:1032F00013430393019B1B68039A1A61019B1B688C
:10330000DB680393039B23F4164323F00C0303931E
:10331000019B9A68019B1B691A43019B5B691A43D5
:10332000019BDB691343039A13430393019B1B68BF
:10333000039ADA60019B1B685B690393039B23F488
:1033400040730393019B9B69039A13430393019B6F
:103350001B68039A5A61019BDB69B3F5004F40F08B
:103360008C80019B1B688B4A934204D0019B1B6895
:10337000894A934240D1019B1C68FFF74BFE0246ED
:1033800013469B0013449A001A44019B5B685B0040
:10339000B2FBF3F3814AA2FB03235B091D01FFF794
:1033A00039FE024613469B0013449A001A44019BBF
:1033B0005B685B00B2FBF3F6FFF72CFE0246134698
:1033C0009B0013449A001A44019B5B685B00B2FBAC
:1033D000F3F3724AA2FB03235B09642202FB03F3AB
:1033E000F31A1B0132336D4AA2FB03235B0903F07E
:1033F0000F032B43A360CBE0019B1C68FFF7E4FDA8
:10340000024613469B0013449A001A44019B5B68D2
:103410005B00B2FBF3F3614AA2FB03235B091D01CE
:10342000FFF7D2FD024613469B0013449A001A444C
:10343000019B5B685B00B2FBF3F6FFF7C5FD02463C
:1034400013469B0013449A001A44019B5B685B007F
:10345000B2FBF3F3514AA2FB03235B09642202FB94
:1034600003F3F31A1B0132334C4AA2FB03235B091B
:1034700003F00F032B43A3608AE0019B1B68454ABE
:10348000934204D0019B1B68434A934240D1019B65
:103490001C68FFF7BFFD024613469B0013449A00C9
:1034A0001A44019B5B689B00B2FBF3F33B4AA2FB0F
:1034B00003235B091D01FFF7ADFD024613469B0088
:1034C00013449A001A44019B5B689B00B2FBF3F61D
:1034D000FFF7A0FD024613469B0013449A001A44CE
:1034E000019B5B689B00B2FBF3F32C4AA2FB032316
:1034F0005B09642202FB03F3F31A1B013233274AF0
:10350000A2FB03235B0903F00F032B43A3603FE0FF
:10351000019B1C68FFF758FD024613469B001344AD
:103520009A001A44019B5B689B00B2FBF3F31B4AB1
:10353000A2FB03235B091D01FFF746FD024613466C
:103540009B0013449A001A44019B5B689B00B2FBEA
:10355000F3F6FFF739FD024613469B0013449A0029
:103560001A44019B5B689B00B2FBF3F30B4AA2FB7E
:1035700003235B09642202FB03F3F31A1B013233BA
:10358000064AA2FB03235B0903F00F032B43A3604E
:1035900004B070BD00100140001401401F85EB51C4
:1035A00086B0034600918DF80730174B9B68059352
:1035B000154B9B68B3F1006F1BD1059B03934FF034
:1035C00000530593002304930CE0049B9B00059A91
:1035D0001344049A920003990A4412681A60049BE7
:1035E00001330493049B642BEFD9074B4FF0005237
:1035F0009A609DF9073010339B00059A1344009A96
:103600001A6006B0704700BF00ED00E082B00346CC
:103610008DF8073007499DF907305B099DF80720B1
:1036200002F01F02012000FA02F241F8232002B04A
:10363000704700BF00E100E000B583B01A4B1B6883
:10364000DB6803F00203002B06D0174B1B686FF0FA
:1036500002021A61FEF7F4FD134B1B68DB6803F0EE
:103660000403002B1CD0104B1B686FF004021A617E
:103670000D4B1B685B6A01930C4B1B68019AD31AB4
:10368000B3F57A7F0CD3FEF767FE074B1B68343324
:103690000433019A02F57A721A60044A019B13609E
:1036A00003B05DF804FB00BFCC05002058040020E7
:1036B00000B583B001902D4A2C4B1B6C43F00803DE
:1036C00013642A4A294B1B6A43F008031362274AF2
:1036D000264B1B6A23F00803136200F09DF8244B6D
:1036E000244A1A60224B4FF0FF32DA60224B1B68EB
:1036F000224AA2FB03239B0C013B1D4A53601C4B37
:1037000000221A611A4B00229A60194B00225A615A
:103710001748FFF7A5FC1A4B32201946FFF740FF68
:103720003220FFF773FF12480021FFF7C3FC104857
:103730000421FFF7BFFC0E4B1B685B6A114A136044
:103740000B4B1B68343304330E4A126802F57A724D
:103750001A60074B1B68064A1268D26842F00402DE
:10376000DA600023184603B05DF804FB003802401D
:10377000CC050020000C00409801002083DE1B4394
:10378000393600085804002008B51E4A1D4BD3F8EE
:10379000883043F47003C2F888301B4A1A4B1B6808
:1037A00043F001031360184B00229A60164A164B2F
:1037B0001B6823F0847323F480331360124B134A85
:1037C0005A60114A104B1B6823F4802313600E4B80
:1037D0000022DA600B4B4FF000629A600C4B0D4AEE
:1037E0001A60FEF797FD00F08DF8074A064B1B6A3A
:1037F00043F008031362044A034B1B6A23F00803D7
:10380000136208BD00ED00E00038024010300024D3
:10381000980100200024F40086B0002304930023C4
:103820000593022303930023029302230193304B59
:103830009B6803F00C030493049B042B07D0082B14
:1038400009D0002B3FD12B4B2B4A1A603FE0294B6C
:103850002A4A1A603BE0264B5B6803F480039B0D09
:103860000293234B5B6803F03F030193029B002B01
:103870000DD0224A019BB2FBF3F21D4B596847F66B
:10388000C0730B409B0903FB02F305930CE01A4A3B
:10389000019BB2FBF3F2164B596847F6C0730B401D
:1038A0009B0903FB02F30593114B5B6803F4403360
:1038B0001B0C01335B000393059A039BB2FBF3F3EC
:1038C0000C4A136003E00B4B0B4A1A6000BF084B15
:1038D0009B6803F0F0031B09094AD35C0493054B72
:1038E0001A68049B22FA03F3024A136006B0704779
:1038F00000380240980100200024F40000127A00F1
:10390000FC74000808B5012000F010F80346002BF5
:103910000BD1002000F00AF80346002B05D100F07F
:1039200059F80346002B00D1FEE708BD00B595B05D
:1039300003468DF80730254A244B1B6C43F0805317
:103940001364234A224B1B6823F4404343F400438F
:103950001360012303939DF80730002B02D101234C
:10396000049301E005230493022309934FF4800399
:103970000A9308230B934FF4A8730C9304230D931D
:1039800007230E9303AB1846FEF7B4FE0346002B45
:1039900001D0002315E00F230F930223109300237F
:1039A00011934FF480531293002313930FAB1846D7
:1039B0000221FFF7EFF80346002B01D0002300E0BF
:1039C0000123184615B05DF804FB00BF0038024023
:1039D0000070004000B593B0224A224B1B6C43F0AC
:1039E00080531364204A204B1B6823F4404343F464
:1039F00000431360032301930123049300230293E4
:103A0000102305930223079300230893102309939F
:103A10004FF4A8730A9304230B9307230C9301AB71
:103A20001846FEF767FE0346002B01D0002315E081
:103A30000F230D9302230E9300230F934FF4805313
:103A40001093002311930DAB18460221FFF7A2F843
:103A50000346002B01D0002300E00123184613B0D9
:103A60005DF804FB003802400070004000B583B0F0
:103A700003468DF807309DF90730B3F1FF3F04D1BD
:103A80000A480B492722FEF755FA9DF907301846D8
:103A9000002100F0F5F89DF8073003F00F03012234
:103AA00002FA03F3184603B05DF804FB0C75000836
:103AB0002075000800B587B001900B468DF80330E3
:103AC000019B9DF803201A709DF90330B3F1FF3F6D
:103AD00000D122E09DF903301B0903F00F03059389
:103AE000059800F061F80490049B03939DF903305E
:103AF0001846FFF7BBFF0246019B5A60039B03F188
:103B00001002019B9A60039B03F11802019BDA608B
:103B1000039B03F11A02019B1A6107B05DF804FBD5
:103B200000B583B001900B468DF80330019B1B78E4
:103B30005AB29DF803301046194600F0EFF803B072
:103B40005DF804FB00B583B001900B468DF803309F
:103B5000019B1B785BB2B3F1FF3F04D10D480E49C6
:103B60004722FEF7E7F99DF80330012B07D1019BAF
:103B70001B785BB21846012100F082F806E0019B39
:103B80001B785BB21846002100F07AF803B05DF8AC
:103B900004FB00BF747500082075000808B5FFF726
:103BA0003BFEFEF7B7FB08BD00B585B001900023D2
:103BB0000393019B072B49D801A252F823F000BFC1
:103BC000E13B0008F33B0008053C0008173C0008F7
:103BD000293C00084D3C00084D3C00083B3C0008D7
:103BE0001F4B03931F4A1F4B1B6B43F001031363CF
:103BF00030E01D4B03931B4A1A4B1B6B43F002032F
:103C0000136327E0194B0393164A164B1B6B43F0C3
:103C1000040313631EE0164B0393124A114B1B6BF4
:103C200043F00803136315E0124B03930D4A0D4B49
:103C30001B6B43F0100313630CE00F4B0393094A13
:103C4000084B1B6B43F08003136303E00B48FEF744
:103C500095F900BF039B184605B05DF804FB00BF53
:103C60000000024000380240000402400008024008
:103C7000000C024000100240001C0240C075000809
:103C800000B58FB0034600918DF807309DF90730DD
:103C9000B3F1FF3F04D11E481E497D22FEF74AF9C9
:103CA000009B03F00F030D93009B1B1103F0070310
:103CB0000C93009BDB1103F00F030B939DF907306E
:103CC0001B0903F00F030A939DF8073003F00F035D
:103CD00009930A98FFF768FF0890089B0793099BD0
:103CE000012202FA03F302930B4A0D9B52F8233090
:103CF00003930C9B0493032305930B9B069302AB46
:103D000007981946FEF75EFB0FB05DF804FB00BF95
:103D1000E4750008F87500088C75000800B589B0D6
:103D200003460A468DF8073013468DF806309DF994
:103D30000730B3F1FF3F04D11A481B49A222FEF716
:103D4000F9F89DF907301B0903F00F0306939DF85E
:103D5000073003F00F0305930698FFF725FF049043
:103D6000049B03939DF806300793079B022B01D910
:103D700000230793039BDA68059B5B001946032326
:103D80008B40DB431A40039BDA60039BDA68059B98
:103D90005B001946079B8B401A43039BDA6009B00E
:103DA0005DF804FBE4750008F875000800B583B001
:103DB0000190019B1B681A46184B1A60019B9B6877
:103DC000164A5360019BDB68144A9360019B1B6990
:103DD000124AD360019B5B69104A13610F4B0022AA
:103DE0009A61019B5B7E5BB2B3F1FF3F03D10B4B4A
:103DF00008225A610CE0019B1B7E5BB2B3F1FF3FCE
:103E000003D1064B04225A6102E0044B0C225A6192
:103E10000248FFF713FA03B05DF804FB0806002020
:103E200000B585B001900B468DF8033013468DF830
:103E300002309DF9033018464749FEF7DBF903903D
:103E40009DF9023018464549FEF7D4F902900398CF
:103E50000299FEF78FF90246019B1A60019B1B68CD
:103E6000B3F1FF3F04D13E483E495022FEF762F8CD
:103E7000019B1B683C4A934206D03C4A934217D0B0
:103E80003B4A93420AD01DE03A4A3A4B5B6C43F0FE
:103E900010035364019B00225A6013E0354A354BEE
:103EA0001B6C43F400331364019B01225A6009E048
:103EB000304A304B5B6C43F020035364019B052276
:103EC0005A6000BF9DF9033018462349FEF71EF9DA
:103ED0009DF9023018462149FEF718F99DF9033083
:103EE000B3F1FF3F05D09DF9033018460121FFF7DC
:103EF00015FF9DF90230B3F1FF3F05D09DF9023067
:103F000018460121FFF70AFF019B4FF416529A60F1
:103F1000019B0022DA60019B00221A61019B0022B2
:103F20005A61019B9DF803201A76019B9DF802209F
:103F30005A760198FFF73AFF019B1B680C4A93429F
:103F400007D10D4B01221A600C4801991C2201F087
:103F5000D2FB05B05DF804FBC076000808770008C6
:103F60004C760008687600080010014000140140FB
:103F7000004400400038024078040020440600203D
:103F800000B583B001900091009A019B9A6001985E
:103F9000FFF70CFF03B05DF804FB00BF84B0039093
:103FA00002910192054A029B1360039B5B680449DE
:103FB000019A41F8232004B0704700BF7404002028
:103FC0005C04002000B585B00190019B1B68039341
:103FD00000BF019800F022F80346002BF9D0039BA4
:103FE0005B68C3F30803184605B05DF804FB00BF27
:103FF00000B585B001900091019B1B68039300BF41
:10400000019800F023F80346002BF9D0009BC3F37E
:104010000802039B5A6005B05DF804FB84B0019070
:10402000019B1B681A46084B1A60074B1B681B68EC
:1040300003F02003002B14BF01230023DBB2039302
:10404000039B184604B070470806002084B0019016
:10405000019B1B681A46084B1A60074B1B681B68BC
:1040600003F08003002B14BF01230023DBB2039372
:10407000039B184604B070470806002008B5074B9C
:104080001B68002B00D008E0044B01221A60044B8F
:10409000044A1A600020FFF70BFB08BDB80400209B
:1040A0007C040020000C004008B5054B1B68002B69
:1040B00001D1FFF7E3FF034B5B6A184608BD00BF61
:1040C000B8040020000C004082B00190064B1B6831
:1040D000019A5A63044B1B68034A1268D26842F083
:1040E0000202DA6002B070477C040020044B1B68B7
:1040F000034A1268D26822F00202DA60704700BFF9
:104100007C040020024B1B686FF002021A617047AA
:104110007C04002010B588B00190084611461A466C
:1041200003468DF803300B468DF8023013468DF8A8
:104130000130019B3F4A1A609DF803308DF80C3026
:104140009DF802308DF80D309DF801308DF80E305D
:104150009DF828308DF80F309DF82C308DF81030F8
:104160009DF830308DF811309DF834308DF81230D4
:104170009DF838308DF813309DF83C308DF81430B0
:104180009DF840308DF815309DF844308DF816308C
:104190009DF848308DF817309DF84C308DF8183068
:1041A0009DF850308DF819309DF854308DF81A3044
:1041B0009DF858308DF81B30019B00225A64002373
:1041C000079330E003AA079B13441B785BB2B3F15B
:1041D000FF3F0ED0142000F0E4FE044603AA079B24
:1041E00013441B785BB220461946FCF75DF8214664
:1041F00000E00021019A079B9B001344596003AA29
:10420000079B13441B785BB2B3F1FF3F08D0019BBF
:104210005A6C0121079B01FA03F31A43019B5A646C
:10422000079B01330793079B0F2BCBDD019B1846A0
:1042300008B010BD5877000800B585B00190019B0B
:10424000124A1A600023039311E0019A039B9B001A
:1042500013445B68002B07D0019A039B9B00134417
:104260005B68184600F0AEFE039B01330393039B8B
:104270000F2BEADD0023002B02D0019800F0A2FEF4
:10428000019B184605B05DF804FB00BF5877000895
:1042900000B583B001900198FFF7CEFF019800F0C0
:1042A00091FE019B184603B05DF804FB00B585B094
:1042B000019000910023039318E0019A039B9B0057
:1042C00013445B68002B0ED0019A039B9B001344A0
:1042D0005968009A039B42FA03F303F0010308466E
:1042E0001946FCF7A3F9039B01330393039B0F2BA0
:1042F000E3DD05B05DF804FB00B583B001900091EB
:1043000001980099FFF7D2FF019B184603B05DF8B2
:1043100004FB00BF84B00390029113468DF8073070
:10432000039B0F4A1A60039B00225A60039B029A68
:104330009A60039B9DF807201A73029B002B07D0FD
:10434000084B1A68039B5A60064A039B136002E0FD
:10435000039B00225A60039B184604B0704700BFBD
:1043600068770008BC04002000B585B00190019B6F
:10437000154A1A60019B9B68002B19D0134B1A68D1
:10438000019B9A4204D1019B5B68104A13600FE0C5
:104390000E4B1B68039302E0039B5B680393039B34
:1043A0005A68019B9A42F7D1019B5A68039B5A6055
:1043B0000023002B02D0019800F004FE019B184658
:1043C00005B05DF804FB00BF68770008BC0400205E
:1043D00000B583B001900198FFF7C6FF019800F087
:1043E000F1FD019B184603B05DF804FB00B585B0F4
:1043F00001900091134B1B6803931BE0039B9B6888
:10440000002B14D0039B9B6818460199009A01F079
:10441000E4FF0346002B0AD1039B9B68184601F07A
:10442000D4FF0246009B9A4201D1039B06E0039B06
:104430005B680393039B002BE0D10023184605B073
:104440005DF804FBBC04002082B00190019B1B7B43
:10445000184602B0704700BF00B585B00190019BBF
:104460001B6810331B6801980021012298470390B4
:10447000039BB3F1FF3F02D14FF0FF3311E0019BEB
:104480001B6810331B680198002102229847029094
:10449000019B1B6810331B68019803990022984701
:1044A000029B184605B05DF804FB00BF82B0019086
:1044B000019B034A1A60019B184602B0704700BF77
:1044C000E077000800B583B001900091019B184689
:1044D000FFF7ECFF019B0433184600990022FFF719
:1044E00019FF019B044A1A60019B044A5A60019B10
:1044F000184603B05DF804FB78770008A47700083D
:1045000000B583B00190019B0C4A1A60019B0C4AD4
:104510005A60019B04331846FFF726FF019B18469B
:1045200000F002F90023002B02D0019800F04AFDB0
:10453000019B184603B05DF804FB00BF78770008C4
:10454000A477000800B587B001900091019B00227C
:104550001A60019B00225A60009B1B782F2B31D1DF
:10456000009B01331B78002B2CD0009B013304935C
:10457000019B049A1A6000230593019B1B681B781A
:104580008DF80F309DF80F302F2B05D1019B1B6844
:104590005A1C019B1A600DE09DF80F30002B00D1D2
:1045A00008E0059B01330593019B1B685A1C019B86
:1045B0001A60E2E7059B04981946FFF717FF0246C9
:1045C000019B5A60019B184607B05DF804FB00BFD1
:1045D00082B00190019B1B68184602B0704700BF73
:1045E00000B583B00190019B5B68002B01D10023D3
:1045F0000AE0019B5B681846FFF726FF0346012B84
:104600000CBF01230023DBB2184603B05DF804FBA6
:1046100000B583B001900198FFF7E2FF0346002B3D
:1046200002D0019B5B6800E00023184603B05DF8F0
:1046300004FB00BF00B583B00190019B5B68002BB9
:1046400001D100230AE0019B5B681846FFF7FCFEDE
:104650000346002B0CBF01230023DBB2184603B036
:104660005DF804FB00B583B001900198FFF7E2FF0D
:104670000346002B09D0019B5B68002B03D0019BF4
:104680005B68043B02E0002300E00023184603B00F
:104690005DF804FB82B00190019B5B68002B14BFA6
:1046A00001230023DBB2184602B0704700B583B087
:1046B00001900091019B00221A60019B00225A6028
:1046C000019B00229A610198009900F005F8019B76
:1046D000184603B05DF804FB82B001900091019B85
:1046E000009A1A60019B00225A6002B0704700BF16
:1046F00000B583B00190019B1B68002B03D0019B88
:104700001B6898470CE0019B5B68002B08D0019B5D
:104710009B69019A5168019A0832084611469847E8
:1047200003B05DF804FB00BF00B585B00190019BAC
:10473000114A1A60002303930EE0104A039B52F8BB
:104740002320019B9A4204D10C4A039B002142F88A
:104750002310039B013303934022039B9A42ECD81E
:104760000023002B02D0019800F02CFC019B18467E
:1047700005B05DF804FB00BFE0770008C00400202E
:1047800008B5054B1B68002B00D004E0034802214C
:104790000322FFF745FB08BD7804002044060020F3
:1047A00084B00190019B0393039B184604B07047AB
:1047B00010B58AB0019000910198484901F0FBFDC5
:1047C0000346002B03D1FFF7DBFF002383E00198B2
:1047D000434901F0F0FD0346002B03D1FFF7D0FF62
:1047E000012378E001983F4901F0E5FD0346002BE5
:1047F00003D1FFF7C5FF02236DE00023099309E011
:10480000394A099B52F82330002B00D106E0099B5E
:10481000013309934022099B9A42F1D84022099B17
:104820009A4202D84FF0FF3355E0019B1B783A2B98
:1048300008D105AB01982D491A4601F04DFD059BA5
:1048400008933BE003AB18460199FFF77BFE03ABEF
:104850001846FFF71FFF034683F00103DBB2002B6E
:1048600002D04FF0FF3336E003AB1846FFF7E2FE0D
:104870000346002B05D003AB1846FFF7F3FE089064
:104880001CE003AB1846FFF7C3FE0790079B002B05
:1048900002D14FF0FF331EE00098FFF781FF069032
:1048A000079B1B6808331C6803AB1846FFF790FE94
:1048B000034607981946069AA0470890089B002BC4
:1048C00002D14FF0FF3306E00749099B089A41F8EF
:1048D0002320099B033318460AB010BDB0770008A7
:1048E000B8770008C0770008C0040020C877000827
:1048F00000B585B00190019B022B01DC002318E07C
:10490000019B033B0D4A52F823300393019B033B69
:104910000A4A002142F82310039B002B02D14FF0DA
:10492000FF3306E0039B1B6804331B68039898471A
:104930000346184605B05DF804FB00BFC004002024
:1049400000B589B00390029101920093039B022B62
:104950001ADC1A4B1B68002B01D1FFF711FF002353
:1049600006930AE0029A069B13441B7814481946E2
:10497000FFF73EFB069B01330693069A019B9A4282
:10498000F0D3019B079313E0039B033B0D4A52F8BE
:1049900023300593059B002B02D14FF0FF3308E035
:1049A000059B1B681B6805980299019A9847079018
:1049B000079B184609B05DF804FB00BF780400208F
:1049C00044060020C004002000B587B00390029187
:1049D00001920093039B022B0FDC154B1B68002BED
:1049E00001D1FFF7CDFE1348FFF7ECFA0346DAB228
:1049F000029B1A700123059314E0039B033B0E4AAC
:104A000052F823300493049B002B02D14FF0FF3364
:104A100009E0049B1B6808331B6804980299019AFB
:104A200098470590059B184607B05DF804FB00BF4A
:104A30007804002044060020C004002000B585B0A2
:104A40000190019B022B01DC012312E0019B033B3F
:104A50000A4A52F823300393039B002B02D14FF0F4
:104A6000FF3306E0039B1B680C331B6803989847D1
:104A70000346184605B05DF804FB00BFC0040020E3
:104A800000B587B0039002910192039B022B01DCD9
:104A9000002314E0039B033B0B4A52F82330059399
:104AA000059B002B02D14FF0FF3308E0059B1B68EC
:104AB00010331B6805980299019A984703461846D7
:104AC00007B05DF804FB00BFC004002000B583B050
:104AD00001900091019B012B05D0019B022B02D07C
:104AE000019B002B05D1009B4FF400525A6000231C
:104AF00006E000F085FA0246092313604FF0FF3309
:104B0000184603B05DF804FB704700BF08B5FFF717
:104B100045F8FFF7F9FFFBF70BFC0346184608BD05
:104B200010B485B00190124B1B680393104B1A68A8
:104B3000019B13440293EFF308831C4623461A4655
:104B4000029B9A4294BF01230023DBB2002B05D0C5
:104B5000084B0C221A604FF0FF3303E0044A029B1B
:104B60001360039B184605B05DF8044B704700BF07
:104B70009C0100206006002000B583B00190094B25
:104B80001B689B68184600F05DFB064B1B68DB68E2
:104B9000184600F057FB019B002B01D0FDF7E4F90C
:104BA000FEE700BF0002002000B583B0019001982D
:104BB000002101F0DDFA03B05DF804FB00B585B01B
:104BC000039001930B468DF80B3013468DF80A3095
:104BD00003999DF90B209DF90A30084611461A46A3
:104BE00000F03CF8039B5C331846019900F0CEF8C6
:104BF000039B064A1A60039B054ADA65039B054A34
:104C00001A66039B184605B05DF804FB107800088F
:104C1000287800085C78000800B583B00190019BFB
:104C2000184600F095F80346184603B05DF804FBFB
:104C3000A0F15C00FFF7F0BF00B583B001900091D8
:104C4000019B1846009900F091F80346184603B0FE
:104C50005DF804FBA0F15C00FFF7EEBF30B583B058
:104C600001900B468DF8033013468DF80230019BFE
:104C7000214A1A60019B00225A60019B00229A601F
:104C8000019B0022DA60019B00221A61019B002235
:104C90005A61019B00229A61019B00221A77019BB5
:104CA00000225A77019B203301241D4605E0284647
:104CB0000021FFF7FBFC1C35013CB4F1FF3FF6D1AE
:104CC000019B4FF416529A65019B191D9DF9032013
:104CD0009DF90230084611461A46FFF7A1F8019BDC
:104CE0001A1D019B104605491A46FFF757F9019B0B
:104CF000184603B030BD00BF88700008214D000881
:104D000000B583B001900091019B043318460099CF
:104D1000FFF736F9019B009A9A6503B05DF804FB32
:104D200000B585B001900B468DF80330019B0393CD
:104D30009DF803201346DB009B1A9B002033039A47
:104D400013441846FFF7D4FC05B05DF804FB00BF20
:104D500000B583B00190019B04331846FFF732F988
:104D60000346184603B05DF804FB00BF00B583B0EE
:104D700001900091019B043318460099FFF738F920
:104D8000009B184603B05DF804FB00BF00B587B078
:104D900001900091019B18460099FFF793FB019B3E
:104DA0000F4A1A60019B0F4A5A60019B00225A6108
:104DB00003AB18460C49019A01F06AFA03AB184696
:104DC0000A4900F03DFB0246019B5A61019B5B6969
:104DD0001846FFF7E9FE019B184607B05DF804FB93
:104DE00078780008AC780008687800086C780008CB
:104DF00000B583B00190019B0C4A1A60019B0C4ADC
:104E00005A60019B5B69184600F066F9019B1846E1
:104E1000FFF776FB0023002B02D0019800F0D2F8B8
:104E2000019B184603B05DF804FB00BF78780008CA
:104E3000AC78000882B001900023184602B0704799
:104E400000B587B0039002910192029B0593059AE9
:104E5000019B1344049314E0039B1B6824331A68DA
:104E6000059B591C05911B780398194690470346EA
:104E7000B3F1FF3F0CBF01230023DBB2002B00D0B6
:104E800003E0059A049B9A42E6D1059A029BD31A45
:104E9000184607B05DF804FB00B589B00390029195
:104EA0000192029B0793079A019B1344069311E01A
:104EB000039B1B6828331B68039898470590059B44
:104EC000B3F1FF3F00D109E0079B5A1C0792059AF6
:104ED000D2B21A70079A069B9A42E9D1079A029BAE
:104EE000D31A184609B05DF804FB00BF84B00390E4
:104EF000029101920023184604B0704782B00190DD
:104F00000023184602B0704782B001900023184673
:104F100002B0704782B001900023184602B070477B
:104F20000EB400B584B0019006AB0293019B5B699F
:104F3000184600F087F9019B5B6918460599029AAB
:104F400000F0D2FD0390039B184604B05DF804EB1B
:104F500003B07047DFF830D0002103E00B4B5B5803
:104F6000435004310A480B4B42189A42F6D30A4A7E
:104F700002E0002342F8043B084B9A42F9D3FEF7C3
:104F800003FCFCF781FF704700800120A87A00082D
:104F9000940100201802002018020020640600205E
:104FA000FEE710B5002814BF044601242046FCF794
:104FB0009FFF30B900F008F808B9FCF7B3FF80474D
:104FC000F4E710BDFCF7A2BF024B1868BFF35F8F78
:104FD000704700BFC005002003460846194600F090
:104FE00001B8000038B5054604480C46134620B108
:104FF000022029462246AFF3008038BD00000000A1
:10500000014B1868704700BF0002002008B5074B2D
:10501000044613B10021AFF30080054B1868836A82
:1050200003B198472046FFF7A7FD00BF000000002E
:105030001C79000870B505460C4609B9002070BD02
:1050400018B183690BB900F04FF9204B9C4201D194
:105050006C6808E01E4B9C4201D1AC6803E01D4B1C
:105060009C4208BFEC68B4F90C30002BE6D028460F
:10507000214600F039F8236B064633B12846216AF1
:1050800098470028B8BF4FF0FF36A3891B0603D509
:105090002846216900F05EFB616B41B104F14403D5
:1050A000994202D0284600F055FB00236363A16CAF
:1050B00021B1284600F04EFB0023A36400F07EF9E6
:1050C0000023A38100F07BF9304670BDB87800085A
:1050D000D8780008F8780008024B01461868FFF7F6
:1050E000A9BF00BF000200208A892DE9F0410546D2
:1050F00010070C4657D44B68002B02DC0B6C002BBE
:1051000018DDE66AB6B102F48052002392B22F682D
:105110002B600AB1626D10E0216A28460123B04776
:10512000411C024609D12B683BB11D2B01D0162B27
:1051300047D12F600020BDE8F081A3895B0705D52A
:105140006368D21A636B0BB1236CD21AE66A216AC8
:1051500000232846B047461CA38905D12A681AB106
:105160001D2A01D0162A19D100226260D9042269B1
:10517000226004D5421C01D12B6803B96065616BC4
:105180002F600029D6D004F14403994202D028466A
:1051900000F0E0FA00206063BDE8F08143F04003D6
:1051A000A381BDE8F0810F69002FC3D093070E687B
:1051B00008BF4B690F6018BF0023C7EB06088B6060
:1051C00012E0A38943F04003A3814FF0FF30BDE814
:1051D000F0812846216AA66A3A464346B04700282D
:1051E000EFDD0744C0EB0808B8F1000FF1DCA1E7E0
:1051F00038B50B6905460C46DBB118B183690BB9AC
:1052000000F072F80C4B9C4201D16C6808E00B4B2B
:105210009C4201D1AC6803E0094B9C4208BFEC689A
:10522000B4F90C302BB128462146BDE83840FFF7D1
:105230005BBF002038BD00BFB8780008D8780008F0
:10524000F8780008014620B9044B0549186800F0B9
:10525000A1B9044B1868FFF7CBBF00BF1C79000849
:10526000F151000800020020014900F093B900BF8D
:10527000F1510008002310B50446036043608360C9
:1052800081814366C28103614361836119465C3059
:10529000082200F056FA054B6362054BA362054BEA
:1052A000E362054B2462236310BD00BF2D63000839
:1052B000536300088B630008AF63000870B5682370
:1052C0004D1E5D430E4605F1740100F087FA044659
:1052D00040B1002180E842000C30A06005F1680276
:1052E00000F02FFA204670BD836910B5044633BB29
:1052F0008364C3640365124B124A1B68826298423E
:1053000004BF0123836100F01FF86060204600F0B5
:105310001BF8A060204600F017F80421E06000228E
:105320006068FFF7A7FFA06809210122FFF7A2FF2D
:10533000E06812210222FFF79DFF0123A36110BD47
:105340001C79000869520008F8B51B4B1E68B36948
:10535000074613B93046FFF7C7FF4836B46873688D
:10536000013B04D4B4F90C5075B16834F8E73368E4
:105370002BB938460421FFF7A1FF306008B1366829
:10538000ECE70C233B60F8BD4FF6FF73E38101238C
:10539000A38165662560A560656025616561A5617D
:1053A00004F15C002946082200F0CBF96563A5638F
:1053B000A564E5642046F8BD1C7900087047704775
:1053C000F7B50F46114601AA054601F041FA064617
:1053D00008B9002029E02846FFF7B6FF0446002858
:1053E000F7D028463946019A4FF4DB7300F06CFE83
:1053F000002806DA0025FFF7E1FFA581FFF7DFFFB0
:10540000E7E70B4B63620B4BA3620B4BE3620B4B67
:105410002363F305E081A681246205D52846214651
:105420000022022300F028F8204603B0F0BD00BFA0
:105430002D630008536300088B630008AF63000806
:105440000A460349034608681946FFF7B9BF00BF7B
:10545000000200200EB403B5014603AB054853F823
:10546000042B0068019300F037FA02B05DF804EBFA
:1054700003B070470002002000F000B82DE9F843A7
:105480000C4690461E46054618B183690BB9FFF7D6
:105490002BFF3D4B9C4201D16C6808E03B4B9C428A
:1054A00001D1AC6803E03A4B9C4208BFEC68A38989
:1054B00003F48473B3F5847F03D128462146FFF7B4
:1054C00097FEE76A0FB91D232BE0012E04D0022EB0
:1054D0002BD056B3162324E028462146FFF788FE3A
:1054E000A28902F4805292B20AB1606D05E0216A8D
:1054F00028463346B847411C14D0A3895A0706D51D
:105500006368C01A636B4BB1236CC01A06E01B07BB
:1055100004D5236813B122699B1A184480440026DD
:1055200003E02B604FF0FF392BE023691BB92846BD
:10553000214600F073F828462146FFF759FE8146C0
:105540000028EFD12846216A42463346B847013049
:10555000E8D0616B41B104F14403994202D028467E
:1055600000F0F8F80023636323692360A389002116
:1055700023F402636160A38104F15C00082200F05F
:10558000E0F84846BDE8F883B8780008D878000805
:10559000F87800082DE9F8438046894600F1480470
:1055A000002694B1A5686768013F0CD4AB89012B34
:1055B00007D9B5F90E30013303D040462946C84714
:1055C00006436835F0E72468EBE73046BDE8F8832A
:1055D00070B50E4B0E4CE41AA41000251E46A542D1
:1055E00004D056F8253098470135F8E701F0D2FC91
:1055F000084C094BE41AA41000251E46A54204D00D
:1056000056F8253098470135F8E770BD08020020AC
:10561000080200201002002008020020F0B58B894B
:105620009D0791B006460C4626D4B1F90E1000290C
:1056300009DAA38913F0800F4FF0000514BF40274B
:105640004FF480670DE001AA01F03AF90028F0DB81
:10565000029D05F47045A5F500514D424D414FF4B2
:1056600080673046394600F0B9F860B9A3899A05D9
:105670001DD443F00203A38104F147032360236197
:105680000123636113E00B4BB362A389206043F0F5
:105690008003A381206167614DB13046B4F90E10DB
:1056A00001F020F918B1A38943F00103A38111B0DF
:1056B000F0BD00BF69520008024B0146186800F0B7
:1056C0008DB800BF00020020024B0146186800F0B0
:1056D00041B800BF0002002010B5C9B20244904298
:1056E000034606D01C788C4200F10100F7D1184621
:1056F00010BD002010BD10B5431E0A44914204D0D5
:1057000011F8014B03F8014FF8E710BD814210B5C5
:1057100001EB020301D3421E0BE09842FBD2811839
:10572000D21AD34204D013F8014D01F8014DF8E725
:1057300010BD994204D011F8014B02F8014FF8E76F
:1057400010BD02440346934202D003F8011BFAE75E
:105750007047000030B500293DD051F8042C0B1FD4
:105760001D49002AB8BF9B180A680C4612B95A6036
:105770000B6030BD93420DD219685818904201BF9A
:105780005A5852181A6042685A60236030BD9942D4
:1057900003D80A4651680029F9D1146815199D42A9
:1057A0000AD11B682344D0188842136013D10868BB
:1057B000034413604B680DE002D90C23036030BD35
:1057C0001C681819884204BF08684968596004BFFA
:1057D00000191860536030BDC805002070B5CC1C9E
:1057E00024F0030408340C2C38BF0C24002C06468B
:1057F00003DA0C233360002070BD8C42F9D3204AB9
:10580000136810461946A1B10A68121B0ED40B2A60
:1058100003D90A608B188C501FE08B420DBF5A6869
:105820004A685A60026018BF0B4616E00B4649688A
:10583000E9E7144D2B681BB9304600F057FC28608F
:105840003046214600F052FC421C0346D1D0C51C14
:1058500025F0030585420AD11C6003F10B001A1DD7
:1058600020F00700821A0AD05142995070BD30468C
:10587000E91A00F03BFC0130BBD02B46ECE770BDD1
:10588000C8050020C40500209368013B002B10B51B
:10589000936009DA9469A34202DBCBB20A2B03D1ED
:1058A000BDE8104000F0F2BE1368581C106019707B
:1058B000C8B210BDF8B506460F461446D518AC421E
:1058C00008D0304614F8011B3A46FFF7DDFF431CB1
:1058D000F5D100E00020F8BD2DE9F0439DB00D4664
:1058E00090460393064618B183690BB9FFF7FCFC99
:1058F000754B9D4201D1756808E0744B9D4201D102
:10590000B56803E0724B9D4208BFF568AB891C0780
:105910000AD52B6943B10023099320238DF8293040
:1059200030238DF82A3041E03046294600F014FF3C
:105930000028F0D04FF0FF30C2E0039A111D12682A
:105940000391002ABBBF524243F002030792079221
:10595000B8BF0493013423782E2B7BD0DFF88081ED
:10596000217840460322FFF7B7FE38B1049AC8EB0E
:1059700000004023834013430493013421785548A9
:105980008DF82810062204F10108FFF7A5FE002873
:1059900000F08580504B002B78D1039B073323F018
:1059A000070308330393099B3B44099343461C4672
:1059B00013F8012B1AB9B4EB08090ED002E0252A1E
:1059C000F5D1F8E73046294642464B46FFF772FFCD
:1059D000013070D0099B4B4409932378002B6AD087
:1059E00000234FF0FF3204930793059206938DF83E
:1059F00053301A9304F101084446DFF8E890217807
:105A000048460522FFF768FE08F10108049B30B103
:105A1000C9EB00000122824013430493ECE7D8064F
:105A200044BF20228DF85320190744BF2B228DF844
:105A3000532022782A2A80D0079923461C46013316
:105A40002278303A092A03D80A2000FB0121F5E721
:105A5000079180E763782A2B0AD1039B1A1D1B68E4
:105A60000392002BB8BF4FF0FF330234059375E764
:105A7000611C00220C4601312378303B092B03D8EE
:105A80000A2000FB0232F5E7059267E703AB0093BB
:105A9000304604A92A46114BAFF3008007E003AB60
:105AA0000093304604A92A460C4B00F0A1F8421C92
:105AB00007467FF478AFAB895B063FF53BAF0998AB
:105AC0001DB0BDE8F08300BFB8780008D8780008A2
:105AD000F87800082A79000800000000B55800088E
